S01000006863746C323033322E73726563A2
S113000015C1000041C100003FC100003DC1000016
S11300103BC1000039C1000037C1000035C10000F8
S113002033C1000031C100002FC100002DC1000008
S11300302BC1000029C1000027C1000025C1000018
S113004023C1000021C100001FC100001DC1000028
S11300501BC1000019C1000017C100006FC50000DA
S113006013C10000E7C300001BC400000DC1000061
S11300700BC1000009C1000007C1000005C1000058
S113008003C1000001C10000FFC00000FDC000006A
S1130090FBC00000F9C00000F7C00000F5C000007C
S11300A0F3C00000F1C00000EFC00000EDC000008C
S11300B0EBC00000E9C00000E7C00000E5C000009C
S11300C0E3C00000E1C00000DFC00000DDC00000AC
S11300D0DBC00000D9C00000D7C00000D5C00000BC
S11300E0D3C000006F067206610665066B06A9069A
S11300F076067A068006840688068E06920696069A
S1130100A9069C06A006A40600000A0B02090C0D11
S11301100E080703040100000000000000000000B6
S113012000000000000000000000000000000000CB
S11301300000000012111000000000000000000088
S113014000000000000000000000000000000102A8
S113015010202008081020401020408002010201D5
S1130160080402010102040810204080804020108D
S113017008040201800402018040201008040201E6
S1130180080402010102040810204080010204084E
S11301901020408005050505070508080808020227
S11301A002020A0A0808040404040101010101010D
S11301B001010303030303030303040707070C0CF0
S11301C00C0C0C0C0C0C02020202060606060606B7
S11301D006060B0B0B0B0B0B0B0B00002000230074
S11301E0260029002C002F0032000001000003012A
S11301F00601090100002200250028002B002E0022
S11302003100340002010000050108010B01000067
S11302102100240027002A002D00300033000101B2
S11302200000040107010A018202820411241FBE96
S1130230CFEFD1E2DEBFCDBF00E00CBF12E0A0E003
S1130240B2E0E2EDFEE000E00BBF02C007900D92C9
S1130250A432B107D9F722E0A4E2B2E001C01D92B2
S1130260AA3EB207E1F711E0C6E1D1E000E005C023
S113027021970109802FFE0122D6C431D10780E0E5
S11302800807B1F76DD323C6BBCECF92DF92EF92AE
S1130290FF920F931F93CF93DF938C01FC01868D04
S11302A0C4D5D82FF801848DC0D58295880F880FC6
S11302B0807CC82FF0E8DF9FC0191124F801828DDB
S11302C0B4D5C82EF801808DB0D5D82EF801868912
S11302D0ACD5E82EF8018489A8D5D82FF8018289F5
S11302E0A4D5F82EF8018089A0D58C0FC82FF0E290
S11302F0CF9EC00D112480E1D89EC00D112498E03A
S1130300E99EC00D1124DD0FDD0FCD0F8F2D880F59
S11303108C0FDF91CF911F910F91FF90EF90DF90A1
S1130320CF900895CF93DF93EC0160E08C854ED598
S113033084E190E04DD461E08C8548D584E190E07F
S113034047D460E08E8542D584E190E041D461E0F9
S11303508E85DF91CF913AC5CF93DF93EC0161E0B5
S11303608881F8D461E08A81F5D461E08C81F2D48B
S113037061E08E81EFD461E08C85ECD461E08E8500
S1130380E9D460E08889E6D460E08A89E3D460E057
S11303908C89E0D460E08E89DDD460E0888DDAD485
S11303A060E08A8DD7D460E08C8DD4D460E08E8DEB
S11303B0D1D461E08885CED461E08A85CBD461E074
S11303C0888504D560E08A8501D561E08A81FED400
S11303D0CE01DF91CF91A6CFCF92DF92EF92FF9221
S11303E0CF93DF93EC01611161E08881EFD484E164
S11303F090E0EED360E08A81E9D460E08C81E6D4B9
S113040061E08E81E3D4CE0140DFC82ED12CE12CF3
S1130410F12CFE2CED2CDC2CCC2461E08C81D6D488
S113042061E08E81D3D4CE0130DFC80ED11CE11C33
S1130430F11CFE2CED2CDC2CCC2460E08C81C6D489
S113044060E08E81C3D4CE0120DFC80ED11CE11C34
S1130450F11CFE2CED2CDC2CCC2461E08C81B6D478
S113046060E08E81B3D4CE0110DFC80ED11CE11C34
S1130470F11C61E08A81AAD4C701B601DF91CF9152
S1130480FF90EF90DF90CF90089526E040E855E28A
S113049060E070E084E492E06AD184E292E05CCFB0
S11304A08F929F92AF92BF92CF92DF92EF92FF9280
S11304B060E084E292E090DF4B015C0161E084E261
S11304C092E08ADF6B017C012AE030E0B501A401EF
S11304D084E492E0ECD260E072E084E492E08AD2B8
S11304E02AE030E0B701A60184E492E0E0D284E49B
S11304F092E0FF90EF90DF90CF90BF90AF909F90ED
S11305008F9080C2E4E2F2E08FE190E091838083F7
S113051080E290E09383828381E290E095838483F8
S113052082E290E09783868383E290E091878087DC
S113053084E290E09387828785E290E095878487C0
S113054086E290E09787868786E190E0918B808BA6
S113055087E190E0938B828B88E190E0958B848B8C
S113056089E190E0978B868B8AE190E0918F808F70
S11305708BE190E0938F828F8CE190E0958F848F54
S11305808DE190E0978F868F0895FC01918D228DE7
S1130590892F90E0805C9F4F821B91098F7399276C
S11305A00895FC01918D828D981731F0828DE80FAA
S11305B0F11D858D90E008958FEF9FEF0895FC0164
S11305C0918D828D981761F0828DDF01A80FB11D86
S11305D05D968C91928D9F5F9F73928F90E00895AA
S11305E08FEF9FEF089589E794E0892B39F080E03D
S11305F090E0892B19F07DD1811125C080E090E035
S1130600892B41F080E090E0892B21F00E940000CA
S113061081111CC080E090E0892B41F080E090E0E3
S1130620892B21F00E940000811113C080E090E02A
S1130630892BA1F080E090E0892B81F00E940000DA
S113064081110AC008950E940000D8CF0E940000C2
S1130650E1CF0E940000EACF0C9400000895FC0151
S1130660848DDF01A80FB11DA35ABF4F2C91848D37
S113067090E001968F739927848FA689B7892C936C
S1130680A089B1898C9180648C93938D848D981307
S113069006C00288F389E02D80818F7D80830895D0
S11306A0CF93DF93EC01888D8823C1F0EA89FB891D
S11306B0808185FD05C0A889B9898C9186FD0EC00D
S11306C00FB607FCF5CF808185FFF2CFA889B989E1
S11306D08C9185FFEDCFCE01C2DFE8CFDF91CF91C2
S11306E00895EF92FF920F931F93CF93DF93EC0142
S11306F081E0888F9B8D8C8D981305C0E889F989DA
S1130700808185FD23C0F62E0B8D10E00F5F1F4FF7
S11307100F731127E02E8C8DE8120BC00FB607FC67
S1130720FACFE889F989808185FFF5CFCE0197DF7B
S1130730F2CF8B8DFE01E80FF11DE35AFF4FF082DB
S11307400B8FEA89FB898081806207C0EE89FF896B
S11307506083E889F98980818064808381E090E006
S1130760DF91CF911F910F91FF90EF900895CF9259
S1130770DF92EF92FF921F93CF93DF93EC016A0114
S11307807B01122FE889F98982E080834115514E5B
S113079061057105A9F060E079E08DE390E0A701BF
S11307A096016BD3DA01C9010197A109B109B69584
S11307B0A79597958795AC01411580E15807A0F05E
S11307C0E889F989108260E874E88EE190E0A70175
S11307D0960153D3BA01A901415051096109710924
S11307E07695679557954795EC85FD855083EE85FD
S11307F0FF854083188EEC89FD891083EA89FB8983
S1130800808180618083EA89FB898081886080831C
S1130810EA89FB89808180688083EA89FB898081F9
S11308208F7D8083DF91CF911F91FF90EF90DF90B8
S1130830CF9008951F920F920FB60F9211240BB60A
S11308400F922F938F939F93EF93FF93E091540212
S1130850F09155028081E0915A02F0915B0282FD91
S113086012C0908180915D028F5F8F7320915E0230
S1130870821751F0E0915D02F0E0EC5BFD4F958F43
S113088080935D0201C08081FF91EF919F918F91D0
S11308902F910F900BBE0F900FBE0F901F901895C5
S11308A01F920F920FB60F9211240BB60F922F9333
S11308B03F934F935F936F937F938F939F93AF93E4
S11308C0BF93EF93FF9384E492E0C9DEFF91EF912D
S11308D0BF91AF919F918F917F916F915F914F9154
S11308E03F912F910F900BBE0F900FBE0F901F9052
S11308F0189584E492E049DE21E0892B09F420E094
S1130900822F0895E4E4F2E01382128288EE93E0E9
S1130910A0E0B0E084839583A683B78386E092E069
S11309209183808385EC90E09587848784EC90E0C4
S11309309787868780EC90E0918B808B81EC90E0A8
S1130940938B828B82EC90E0958B848B86EC90E089
S1130950978B868B118E128E138E148E08950895A4
S113096042D1FDDF92DDC3EFD2E09ADD2097E9F3B7
S11309703ADEFBCFCF92DF92EF92FF920F931F9359
S1130980CF93DF936C017A018B01C0E0D0E0CE15E8
S1130990DF0589F0D8016D918D01D601ED91FC91AF
S11309A00190F081E02DC6011995892B11F47E0187
S11309B002C02196ECCFC701DF91CF911F910F9117
S11309C0FF90EF90DF90CF9008956115710579F055
S11309D0FB0101900020E9F73197AF01461B570B4B
S11309E0DC01ED91FC910280F381E02D199480E00B
S11309F090E00895EACFDC01ED91FC910190F08143
S1130A00E02D199462E172E0E0CF8F929F92AF9251
S1130A10BF92CF92DF92EF92FF920F931F93CF93E7
S1130A20DF93CDB7DEB7A1970FB6F894DEBF0FBE44
S1130A30CDBF7C01D42EC52EDB0119A2223008F4CF
S1130A402AE08E010F5D1F4F822E912CA12CB12C18
S1130A506D2D7C2DCD01A50194010FD2D22EC32E74
S1130A60DA01015011096A3071058105910510F40C
S1130A70605D01C0695CF8016083232B242B252B66
S1130A8039F7B801C701A1DFA1960FB6F894DEBF0C
S1130A900FBECDBFDF91CF911F910F91FF90EF90CB
S1130AA0DF90CF90BF90AF909F908F900895CF929A
S1130AB0DF92EF92FF920F931F93CF93DF93EC019A
S1130AC06A017B012115310579F4E881F9810190EE
S1130AD0F081E02D642FDF91CF911F910F91FF9052
S1130AE0EF90DF90CF9019942A303105D9F477FF35
S1130AF018C06DE280DF8C0144275527BA014C19D8
S1130B005D096E097F092AE0CE017FDF800F911F06
S1130B10DF91CF911F910F91FF90EF90DF90CF90D5
S1130B2008952AE0B701A601CE01DF91CF911F916C
S1130B300F91FF90EF90DF90CF9067CF1F920F92AD
S1130B400FB60F9211242F933F938F939F93AF93DC
S1130B50BF938091E2029091E302A091E402B091EC
S1130B60E5023091E10223E0230F2D3720F40196B2
S1130B70A11DB11D05C026E8230F0296A11DB11DBC
S1130B802093E1028093E2029093E302A093E402B3
S1130B90B093E5028091E6029091E702A091E80209
S1130BA0B091E9020196A11DB11D8093E6029093D4
S1130BB0E702A093E802B093E902BF91AF919F913D
S1130BC08F913F912F910F900FBE0F901F9018950A
S1130BD08230910538F0880F991F880F991F059767
S1130BE00197F1F70895789484B5826084BD84B543
S1130BF0816084BD85B5826085BD85B5816085BD14
S1130C00EEE6F0E0808181608083E1E8F0E010822C
S1130C10808182608083808181608083E0E8F0E06D
S1130C20808181608083E1EBF0E080818460808357
S1130C30E0EBF0E0808181608083E1E9F0E0808195
S1130C4082608083808181608083E0E9F0E080813C
S1130C5081608083E1EAF0E080818260808380812A
S1130C6081608083E0EAF0E0808181608083E1E25A
S1130C70F1E0808182608083808181608083E0E212
S1130C80F1E0808181608083EAE7F0E08081846024
S1130C908083808182608083808181608083808181
S1130CA0806880831092C100089590E0FC01319720
S1130CB0E231F10508F04DC08827EE58FF4F8F4F01
S1130CC0FEC0809180008F7703C0809180008F7D6B
S1130CD080938000089580918000877FF9CF84B548
S1130CE08F7702C084B58F7D84BD08958091B00054
S1130CF08F7703C08091B0008F7D8093B0000895FA
S1130D00809190008F7707C0809190008F7D03C001
S1130D1080919000877F8093900008958091A00037
S1130D208F7707C08091A0008F7D03C08091A000C1
S1130D30877F8093A0000895809120018F7707C05A
S1130D40809120018F7D03C080912001877F809353
S1130D5020010895CF93DF9390E0FC01E25BFE4F06
S1130D602491FC01EC56FE4F8491882361F190E0BC
S1130D70880F991FFC01E25FFD4FC591D491FC01DE
S1130D80EC50FE4FA591B491611109C09FB7F8943E
S1130D908881209582238883EC912E230BC06230B6
S1130DA061F49FB7F8943881822F809583238883D8
S1130DB0EC912E2B2C939FBF06C08FB7F894E8813B
S1130DC02E2B28838FBFDF91CF9108951F93CF934C
S1130DD0DF93282F30E0F901E85FFE4F8491F90199
S1130DE0E25BFE4FD491F901EC56FE4FC491CC2343
S1130DF0C1F0162F811159DFEC2FF0E0EE0FFF1F29
S1130E00EC50FE4FA591B4918FB7F894111105C021
S1130E109C91ED2FE095E92302C0EC91ED2BEC932E
S1130E208FBFDF91CF911F910895CF93DF93282F28
S1130E3030E0F901E85FFE4F8491F901E25BFE4F77
S1130E40D491F901EC56FE4FC491CC2389F0811161
S1130E502CDFEC2FF0E0EE0FFF1FE652FE4FA591C2
S1130E60B491EC91ED2381E090E021F480E002C0A4
S1130E7080E090E0DF91CF910895A1E21A2EAA1BA1
S1130E80BB1BFD010DC0AA1FBB1FEE1FFF1FA21736
S1130E90B307E407F50720F0A21BB30BE40BF50B33
S1130EA0661F771F881F991F1A9469F760957095BC
S1130EB0809590959B01AC01BD01CF010895EE0F83
S1130EC0FF1F881F8BBF0790F691E02D1994F894AB
S1050ED0FFCF4E
S1130ED22D00000000007103BA04C502DF02D10232
S1130EE250030D0A006E616E00696E66006F7666CD
S1070EF2002E0000CA
S9030000FC
