:100000000C943F010C9470010C9470010C947001DD
:100010000C9470010C9470010C9470010C9470019C
:100020000C9470010C9470010C9470010C9470018C
:100030000C9470010C9470010C9470010C9470017C
:100040000C9470010C9470010C9470010C9470016C
:100050000C9470010C9470010C9470010C949E0629
:100060000C9470010C94ED040C9423050C94700115
:100070000C9470010C9470010C9470010C9470013C
:100080000C9470010C9470010C9470010C9470012C
:100090000C9470010C9470010C9470010C9470011C
:1000A0000C9470010C9470010C9470010C9470010C
:1000B0000C9470010C9470010C9470010C947001FC
:1000C0000C9470010C9470010C9470010C947001EC
:1000D0000C9470010C9470010C9470010C947001DC
:1000E0000C947001CF02D202C102C502CB020903F7
:1000F000D602DA02E002E402E802EE02F202F602BE
:100100000903FC02000304030C944D050C948B01BD
:100110000C94CF020C94FC020C9484030C94920374
:100120000C94A6030C94E0020C94DA020C9479036C
:100130000C9426040C94AA050C94EE020C94000373
:100140000C9404030C94D2020C94E4020C94C502A7
:100150000C94E8020C94C1020C94F6020C9457051E
:100160000C9404040C9409030C94F2020C94CB023A
:100170000C94D60200000A0B02090C0D0E080703AE
:10018000040100000000000000000000000000006A
:10019000000000000000000000000000000000005F
:1001A000121110000000000000000000000000001C
:1001B00000000000000000000000010210202008E4
:1001C00008102040102040800201020108040201B2
:1001D0000102040810204080804020100804020121
:1001E000800402018040201008040201080402017A
:1001F0000102040810204080010204081020408001
:1002000005050505070508080808020202020A0A92
:1002100008080404040401010101010101010303B0
:10022000030303030303040707070C0C0C0C0C0C5B
:100230000C0C0202020206060606060606060B0B58
:100240000B0B0B0B0B0B00002200250028002B00D2
:100250002E003100340002010000050108010B01ED
:1002600000002100240027002A002D003000330068
:1002700001010000040107010A018B015705112447
:100280001FBECFEFD1E2DEBFCDBF00E00CBF12E05A
:10029000A0E0B2E0E0EFFEE000E00BBF02C007909C
:1002A0000D92A232B107D9F722E0A2E2B2E001C07A
:1002B0001D92AB3CB207E1F712E0CEE7D2E000E0DE
:1002C00006C022970109FE010BBF0E947207CA37C0
:1002D000D10780E00807A9F70E949B050C947607D8
:1002E0000C94000026E040E855E260E070E085E212
:1002F00092E00E948B0482E292E00C94410282E23E
:1003000092E00E946802AB01BC012AE030E085E285
:1003100092E00C948C0665E370E082E292E00C942B
:10032000CE01CF93CFB7F89480912402811127C0DA
:10033000E5E3F2E08491EFEEF1E09491E82FF0E054
:10034000EE0FFF1FE05AFD4FA591B4918C918923C8
:1003500021F461E085E30E94430361E085E30E94AC
:100360000A038CB580618CBD8CB580648CBD61E066
:1003700084E30E940A0361E083E30E940A03809100
:1003800024028F5F80932402CFBFCF9108958EBD4A
:1003900000000DB407FEFDCF8EB50895CF93DF9317
:1003A000EC01862F6883798361E00E940A0361E093
:1003B00088810E9443030E94910160E088810E942D
:1003C000430388E80E94C70183E00E94C70161E0FF
:1003D00088810E94430360E088810E94430388E88B
:1003E0000E94C70180E00E94C70161E088810E94ED
:1003F000430360E088810E94430388E80E94C701AC
:1004000080E00E94C70161E088810E94430360E0B0
:1004100088810E94430388E80E94C70180E00E940F
:10042000C70161E088810E94430360E088810E94E7
:10043000430388E80E94C70180E80E94C70161E089
:1004400088810E94430360E088810E94430380E921
:100450000E94C70180E00E94C70161E088810E947C
:10046000430360E088810E94430380E90E94C70142
:1004700080E00E94C70161E08881DF91CF910C94F8
:100480004303CF93DF93EC0160E088810E94430334
:1004900088E90E94C70180E00E94C70180E00E94B5
:1004A000C70180E00E94C70180E00E94C70161E0AF
:1004B00088810E94430360E088810E94430380EEAC
:1004C0000E94C70161E08881DF91CF910C944303C2
:1004D000CF92DF92EF92FF920F931F93CF937C0105
:1004E00060E0FC0180810E94430380E60E94C70116
:1004F00080E00E94C701182F80E00E94C701C82E2B
:1005000080E00E94C701082F80E00E94C701C82F29
:1005100061E0F70180810E944303812F90E0A0E019
:10052000B0E0982F882777276627D12CE12CF12C73
:100530007601DD24CC246C0D7D1D8E1D9F1D10E0E9
:1005400020E030E0322F212F102F0027600F711F85
:10055000821F931F6C0F711D811D911DCF911F91E3
:100560000F91FF90EF90DF90CF90089590E0FC0105
:100570003197E231F10508F04CC0EE58FF4F0C9472
:100580006C07809180008F7703C0809180008F7D01
:1005900080938000089580918000877FF9CF84B593
:1005A0008F7702C084B58F7D84BD08958091B0009F
:1005B0008F7703C08091B0008F7D8093B000089545
:1005C000809190008F7707C0809190008F7D03C04D
:1005D00080919000877F8093900008958091A00083
:1005E0008F7707C08091A0008F7D03C08091A0000D
:1005F000877F8093A0000895809120018F7707C0A6
:10060000809120018F7D03C080912001877F80939E
:1006100020010895CF93DF9390E0FC01E654FE4F54
:100620002491FC01E050FE4F8491882349F190E031
:10063000880F991FFC01E05AFD4FA591B4918A5B88
:100640009D4FFC01C591D4919FB7611108C0F894EA
:100650008C91209582238C93888182230AC06230FA
:1006600051F4F8948C91322F309583238C938881A8
:10067000822B888304C0F8948C91822B8C939FBF2B
:10068000DF91CF9108950F931F93CF93DF931F9224
:10069000CDB7DEB7282F30E0F901EC58FE4F84913A
:1006A000F901E654FE4F1491F901E050FE4F049118
:1006B0000023C9F0882321F069830E94B602698172
:1006C000E02FF0E0EE0FFF1FEA5BFD4FA591B49124
:1006D0009FB7F8948C91611103C01095812301C0DC
:1006E000812B8C939FBF0F90DF91CF911F910F9122
:1006F0000895FC01818D228D90E0805C9F4F821BCC
:1007000091098F7399270895FC01918D828D981717
:1007100031F0828DE80FF11D858D90E008958FEF07
:100720009FEF0895FC01918D828D981761F0828D65
:10073000DF01A80FB11D5D968C91928D9F5F9F7315
:10074000928F90E008958FEF9FEF08958DE495E0EC
:10075000892B41F080E090E0892B21F00E944D052B
:10076000811125C080E090E0892B41F080E090E08D
:10077000892B21F00E94000081111CC080E090E0D4
:10078000892B41F080E090E0892B21F00E9400004D
:10079000811113C080E090E0892BA1F080E090E00F
:1007A000892B81F00E94000081110AC008950E94E7
:1007B0000000D8CF0E940000E1CF0E940000EACFE5
:1007C0000C9400000895FC01848DDF01A80FB11D79
:1007D000A35ABF4F2C91848D90E001968F73992777
:1007E000848FA689B7892C93A089B1898C91806464
:1007F0008C93938D848D981306C00288F389E02D25
:1008000080818F7D80830895CF93DF93EC01888D65
:100810008823C9F0EA89FB89808185FD05C0A88904
:10082000B9898C9186FD0FC00FB607FCF5CF80818A
:1008300085FFF2CFA889B9898C9185FFEDCFCE01D4
:100840000E94E303E7CFDF91CF910895CF92DF922B
:10085000FF920F931F93CF93DF931F92CDB7DEB715
:100860006C0181E0D60158968C9358975B969C91C9
:100870005B975C968C915C97981307C05096ED91AE
:10088000FC915197808185FD2EC0F601038D10E00B
:100890000F5F1F4F0F731127F02EF601848DF81292
:1008A00011C00FB607FCF9CFD6015096ED91FC911F
:1008B0005197808185FFF1CFC60169830E94E303D0
:1008C0006981EBCF838DE80FF11DE35AFF4F608301
:1008D000D6015B960C935B975296ED91FC915397E2
:1008E000808180620CC0D6015696ED91FC9157979D
:1008F00060835096ED91FC91519780818064808354
:1009000081E090E00F90DF91CF911F910F91FF90C8
:10091000DF90CF900895BF92CF92DF92EF92FF9237
:10092000CF93DF93EC016A017B01B22EE889F9894C
:1009300082E08083411581EE580761057105A1F0C1
:1009400060E079E08DE390E0A70196010E944A07FC
:1009500021503109410951095695479537952795F9
:10096000211580E1380798F0E889F989108260E85C
:1009700074E88EE190E0A70196010E944A07215099
:100980003109410951095695479537952795EC85C9
:10099000FD853083EE85FF852083188EEC89FD89E7
:1009A000B082EA89FB89808180618083EA89FB8942
:1009B000808188608083EA89FB8980818068808368
:1009C000EA89FB8980818F7D8083DF91CF91FF90C1
:1009D000EF90DF90CF90BF9008951F920F920FB6C7
:1009E0000F9211240BB60F922F938F939F93EF9337
:1009F000FF93E0913502F09136028081E0913B0255
:100A0000F0913C0282FD12C0908180913E028F5F86
:100A10008F7320913F02821751F0E0913E02F0E087
:100A2000EB5DFD4F958F80933E0201C08081FF9169
:100A3000EF919F918F912F910F900BBE0F900FBE52
:100A40000F901F9018951F920F920FB60F921124BE
:100A50000BB60F922F933F934F935F936F937F93B8
:100A60008F939F93AF93BF93EF93FF9385E292E0B1
:100A70000E94E303FF91EF91BF91AF919F918F91FE
:100A80007F916F915F914F913F912F910F900BBE8E
:100A90000F900FBE0F901F90189585E292E00E9474
:100AA000790321E0892B09F420E0822F0895109228
:100AB00028021092270288EE93E0A0E0B0E0809335
:100AC000290290932A02A0932B02B0932C0284E077
:100AD00092E0909326028093250285EC90E090931B
:100AE00032028093310284EC90E090933402809340
:100AF000330280EC90E0909336028093350281ECD3
:100B000090E0909338028093370282EC90E09093CB
:100B10003A028093390286EC90E090933C028093F5
:100B20003B0210923E0210923F021092400210923D
:100B30004102089508950E94E8060E949A050E94C5
:100B40007201C6EAD3E00E947F012097E1F30E9480
:100B5000A603F9CFCF92DF92EF92FF920F931F93EC
:100B6000CF93DF937C016A01EB0100E010E00C15EC
:100B70001D0571F06991D701ED91FC910190F08113
:100B8000E02DC7011995892B19F00F5F1F4FEFCF8B
:100B9000C801DF91CF911F910F91FF90EF90DF90EF
:100BA000CF9008956115710581F0DB010D90002053
:100BB000E9F7AD0141505109461B570BDC01ED919E
:100BC000FC910280F381E02D199480E090E008957B
:100BD000DC01ED91FC910190F081E02D199460E130
:100BE00072E00C94D2058F929F92AF92BF92DF92E7
:100BF000EF92FF920F931F93CF93DF93CDB7DEB7A2
:100C0000A1970FB6F894DEBF0FBECDBF7C01F42FC5
:100C1000D52ECB0119A2223008F42AE08E010F5DF7
:100C20001F4F822E912CA12CB12C6F2F7D2DA50151
:100C300094010E944A07F22FD32ECA0101501109D4
:100C40006A3014F4E0E301C0E7E3E60FD801EC9367
:100C5000232B242B252B49F7B801C7010E94D2056D
:100C6000A1960FB6F894DEBF0FBECDBFDF91CF9136
:100C70001F910F91FF90EF90DF90BF90AF909F90EA
:100C80008F900895CF92DF92EF92FF920F931F9370
:100C9000CF93DF93EC016A017B012115310579F4D3
:100CA000E881F9810190F081E02D642FDF91CF91EF
:100CB0001F910F91FF90EF90DF90CF9019942A3001
:100CC0003105E9F477FF1AC06DE20E94E8058C0156
:100CD00044275527BA014C195D096E097F092AE09E
:100CE000CE010E94F305800F911FDF91CF911F91DC
:100CF0000F91FF90EF90DF90CF9008952AE0B70119
:100D0000A601CE01DF91CF911F910F91FF90EF903F
:100D1000DF90CF900C94F3050F931F93CF93DF9345
:100D2000EC010E9442068C01CE010E94EF05800F6B
:100D3000911FDF91CF911F910F9108951F920F92F4
:100D40000FB60F9211242F933F938F939F93AF93DE
:100D5000BF938091C3029091C402A091C502B0914B
:100D6000C6023091C20223E0230F2D3720F40196F2
:100D7000A11DB11D05C026E8230F0296A11DB11DBE
:100D80002093C2028093C3029093C402A093C50231
:100D9000B093C6028091C7029091C802A091C90287
:100DA000B091CA020196A11DB11D8093C702909314
:100DB000C802A093C902B093CA02BF91AF919F919C
:100DC0008F913F912F910F900FBE0F901F9018950C
:100DD000789484B5826084BD84B5816084BD85B516
:100DE000826085BD85B5816085BDEEE6F0E08081DD
:100DF00081608083E1E8F0E01082808182608083FE
:100E0000808181608083E0E8F0E080818160808380
:100E1000E1EBF0E0808184608083E0EBF0E08081B2
:100E200081608083E1E9F0E080818260808380815D
:100E300081608083E0E9F0E0808181608083E1EA85
:100E4000F0E0808182608083808181608083E0EA3D
:100E5000F0E0808181608083E1E2F1E08081826066
:100E60008083808181608083E0E2F1E08081816025
:100E70008083EAE7F0E08081846080838081826003
:100E800080838081816080838081806880831092EC
:100E9000C1000895A1E21A2EAA1BBB1BFD010DC0C3
:100EA000AA1FBB1FEE1FFF1FA217B307E407F5071A
:100EB00020F0A21BB30BE40BF50B661F771F881FF6
:100EC000991F1A9469F760957095809590959B018C
:100ED000AC01BD01CF010895EE0FFF1F0590F49105
:100EE000E02D19940790F691E02D1994F894FFCF16
:100EF000000000002604AA05790392038403040479
:100F00000D0A006E616E00696E66006F7666002ED7
:020F10000000DF
:00000001FF
