:1000000008C1000034C1000032C1000030C100004E
:100010002EC100002CC100002AC1000028C1000030
:1000200026C1000024C1000022C1000020C1000040
:100030001EC100001CC100001AC1000018C1000050
:1000400016C1000014C1000012C1000010C1000060
:100050000EC100000CC100000AC1000074C3000002
:1000600006C10000B2C60000E6C6000000C10000E4
:10007000FEC00000FCC00000FAC00000F8C0000094
:10008000F6C00000F4C00000F2C00000F0C00000A4
:10009000EEC00000ECC00000EAC00000E8C00000B4
:1000A000E6C00000E4C00000E2C00000E0C00000C4
:1000B000DEC00000DCC00000DAC00000D8C00000D4
:1000C000D6C00000D4C00000D2C00000D0C00000E4
:1000D000CEC00000CCC00000CAC00000C8C00000F4
:1000E000C6C00000CD04D004BF04C304C904070582
:1000F000D404D804DE04E204E604EC04F004F404BE
:100100000705FA04FE04020500000A0B02090C0DA3
:100110000E080703040100000000000000000000BA
:1001200000000000000000000000000000000000CF
:10013000000000001211100000000000000000008C
:1001400000000000000000000000000000000102AC
:1001500010202008081020401020408002010201D9
:100160000804020101020408102040808040201091
:1001700008040201800402018040201008040201EA
:100180000804020101020408102040800102040852
:10019000102040800505050507050808080802022B
:1001A00002020A0A08080404040401010101010111
:1001B00001010303030303030303040707070C0CF4
:1001C0000C0C0C0C0C0C02020202060606060606BB
:1001D00006060B0B0B0B0B0B0B0B00002200250074
:1001E00028002B002E003100340002010000050120
:1001F00008010B0100002100240027002A002D0027
:100200003000330001010000040107010A01F5017B
:100210004D0711241FBECFEFD1E2DEBFCDBF00E0FE
:100220000CBF12E0A0E0B2E0E2E9F1E100E00BBFB8
:1002300002C007900D92AC39B107D9F723E0ACE9C1
:10024000B2E001C01D92A438B207E1F712E0C2E1AA
:10025000D2E000E005C022970109FE010BBF93D751
:10026000CE30D10780E00807B1F75BD690C7C8CE83
:1002700040ED57E060E070E087EA92E0D3D120E8FB
:1002800035E240E050E067EE72E087EA92E0DCD1D0
:1002900087EA92E0C5D160E072E08091D802909147
:1002A000D90287D66AE070E080E090E0C5D241E0F4
:1002B00060E087EA92E02DD226E040E855E260E077
:1002C00070E087EE92E021D58CE992E020C1CF92D8
:1002D000DF92EF92FF920F931F937FD2672B682BD1
:1002E000692B39F47AD2623071058105910508F4E1
:1002F0006CC073D260939E0270939F028093A002A1
:100300009093A1020091A2021091A3022091A40255
:100310003091A502601771078207930740F460933C
:10032000A2027093A3028093A4029093A50200916D
:10033000A2021091A3022091A4023091A5026B01A8
:100340007C01C01AD10AE20AF30A970186010A3F2A
:1003500011052105310508F438C06093A20270939D
:10036000A3028093A4029093A50287EA92E058D159
:1003700062E172E08091D8029091D9021AD66AE1C6
:1003800072E08091D8029091D90213D626D2AB01A7
:10039000BC012AE030E08091D8029091D902B8D611
:1003A0006CE172E08091D8029091D90202D665E0AA
:1003B00070E080E090E040D26AE070E080E090E0A1
:1003C0003BD261E087EA92E067D18CE992E0BCD051
:1003D000AB01BC012AE030E087EE92E01F910F9163
:1003E000FF90EF90DF90CF9083C665E370E08CE9DB
:1003F00092E039C0CF93CFB7F8948091A6028111D3
:1004000023C0E9ECF1E08491E3E8F1E09491E82F76
:10041000F0E0EE0FFF1FEC50FE4FA591B4918C91D0
:10042000892319F461E085E32CD361E085E3F0D200
:100430008CB580618CBD8CB580648CBD61E084E33B
:10044000E7D261E083E3E4D28091A6028F5F8093DC
:10045000A602CFBFCF9108958EBD00000DB407FE58
:10046000FDCF8EB50895CF93DF93EC01862F68837F
:10047000798361E0CDD261E0888103D3BBDF60E0A6
:100480008881FFD288E8E8DF83E0E6DF61E08881E9
:10049000F8D260E08881F5D288E8DEDF80E0DCDF3A
:1004A00061E08881EED260E08881EBD288E8D4DF19
:1004B00080E0D2DF61E08881E4D260E08881E1D22F
:1004C00088E8CADF80E0C8DF61E08881DAD260E0D6
:1004D0008881D7D288E8C0DF80E8BEDF61E088810C
:1004E000D0D260E08881CDD280E9B6DF80E0B4DF91
:1004F00061E08881C6D260E08881C3D280E9ACDF48
:1005000080E0AADF61E08881DF91CF91BAC2CF930A
:10051000DF93EC0160E08881B4D288E99DDF80E060
:100520009BDF80E099DF80E097DF80E095DF61E08E
:100530008881A7D260E08881A4D280EE8DDF61E05F
:100540008881DF91CF919DC2CF92DF92EF92FF928F
:100550000F931F93CF937C0160E0FC01808191D2C7
:1005600080E67ADF80E078DF182F80E075DFC82E24
:1005700080E072DF082F80E06FDFC82F61E0F701B5
:1005800080817FD2812F90E0A0E0B0E0982F882773
:1005900077276627D12CE12CF12C7601DD24CC24A1
:1005A0006C0D7D1D8E1D9F1D10E020E030E0322F70
:1005B000212F102F0027600F711F821F931F6C0FB8
:1005C000711D811D911DCF911F910F91FF90EF9093
:1005D000DF90CF9008950F931F93CF93DF93EC019B
:1005E000662351F0FAD069837A838B839C83DF91F1
:1005F000CF911F910F910895F0D009811A812B811D
:100600003C81601B710B820B930B6233710581057A
:10061000910540F763E070E080E090E00DD1ECCF11
:1006200060E0D9CFFC0113AA14AA15AA16AA118258
:10063000128213821482411551056105710519F06A
:10064000CB01BA01F9C00895FB01BA01A901DC018F
:10065000D296FC93EE93D19726E0CF0156C31F9319
:10066000CF93DF93EC01162F65E272E089A99AA976
:10067000A0D44AE050E0612F89A99AA955D56CE22F
:1006800072E089A99AA995D462E370E080E090E0D5
:10069000DF91CF911F91D0C01F93CF93DF93EC01D7
:1006A000162F8D81882381F189A99AA9DC01ED910A
:1006B000FC910480F581E02D1995892BA9F307C0E1
:1006C0002637310511F12835310509F41D8289A934
:1006D0009AA9DC01ED91FC910480F581E02D19953A
:1006E000181619068CF489A99AA9DC01ED91FC91E0
:1006F0000680F781E02D19959C01332723363105BB
:10070000F9F6612FCE01ABDF83E6DF91CF911F9128
:1007100008950F931F93CF93DF931F92CDB7DEB74A
:100720008C01662341F081E0F801858360E0C80117
:100730004983B2DF4981F80145830F90DF91CF9162
:100740001F910F9108951F920F920FB60F921124CF
:100750002F933F938F939F93AF93BF938091DF022B
:100760009091E002A091E102B091E2023091DE02AC
:1007700023E0230F2D3720F40196A11DB11D05C0E4
:1007800026E8230F0296A11DB11D2093DE0280935F
:10079000DF029093E002A093E102B093E202809125
:1007A000E3029091E402A091E502B091E602019685
:1007B000A11DB11D8093E3029093E402A093E50292
:1007C000B093E602BF91AF919F918F913F912F918E
:1007D0000F900FBE0F901F9018952FB7F89460914F
:1007E000DF027091E0028091E1029091E2022FBF5E
:1007F00008953FB7F8948091E3029091E402A091AC
:10080000E502B091E60226B5A89B05C02F3F19F07E
:100810000196A11DB11D3FBF6627782F892F9A2F02
:10082000620F711D811D911D42E0660F771F881FA9
:10083000991F4A95D1F708958F929F92AF92BF92D8
:10084000CF92DF92EF92FF926B017C01D2DF4B01DE
:100850005C01C114D104E104F104E1F06BD4C9DFFF
:10086000681979098A099B09683E734081059105D9
:1008700080F321E0C21AD108E108F10888EE880E61
:1008800083E0981EA11CB11CC114D104E104F10441
:1008900031F7DFCFFF90EF90DF90CF90BF90AF9018
:1008A0009F908F900895789484B5826084BD84B5BC
:1008B000816084BD85B5826085BD85B5816085BD5B
:1008C000EEE6F0E0808181608083E1E8F0E0108274
:1008D000808182608083808181608083E0E8F0E0B5
:1008E000808181608083E1EBF0E08081846080839F
:1008F000E0EBF0E0808181608083E1E9F0E08081DD
:1009000082608083808181608083E0E9F0E0808183
:1009100081608083E1EAF0E0808182608083808171
:1009200081608083E0EAF0E0808181608083E1E2A1
:10093000F1E0808182608083808181608083E0E259
:10094000F1E0808181608083EAE7F0E0808184606B
:1009500080838081826080838081816080838081C8
:10096000806880831092C100089590E0FC01319767
:10097000E231F10508F04BC0EE58FF4FFEC3809105
:1009800080008F7703C0809180008F7D80938000EE
:10099000089580918000877FF9CF84B58F7702C05A
:1009A00084B58F7D84BD08958091B0008F7703C09A
:1009B0008091B0008F7D8093B00008958091900069
:1009C0008F7707C0809190008F7D03C08091900049
:1009D000877F8093900008958091A0008F7707C053
:1009E0008091A0008F7D03C08091A000877F8093BD
:1009F000A0000895809120018F7707C08091200189
:100A00008F7D03C080912001877F8093200108950E
:100A1000CF93DF9390E0FC01E25BFE4F2491FC0159
:100A2000EC56FE4F8491882349F190E0880F991F7E
:100A3000FC01EC50FE4FA591B49186529E4FFC01F3
:100A4000C591D4919FB7611108C0F8948C912095FD
:100A500082238C93888182230AC0623051F4F894F7
:100A60008C91322F309583238C938881822B8883BD
:100A700004C0F8948C91822B8C939FBFDF91CF910F
:100A800008950F931F93CF93DF931F92CDB7DEB7D7
:100A9000282F30E0F901E85FFE4F8491F901E25B15
:100AA000FE4F1491F901EC56FE4F04910023C1F062
:100AB000882319F0698359DF6981E02FF0E0EE0F98
:100AC000FF1FE652FE4FA591B4919FB7F8948C9109
:100AD000611103C01095812301C0812B8C939FBFAE
:100AE0000F90DF91CF911F910F910895FC01818D9F
:100AF000228D90E0805C9F4F821B91098F73992714
:100B00000895FC01918D828D981731F0828DE80F48
:100B1000F11D858D90E008958FEF9FEF0895FC0102
:100B2000918D828D981761F0828DDF01A80FB11D24
:100B30005D968C91928D9F5F9F73928F90E0089548
:100B40008FEF9FEF089584E497E0892B39F080E0E0
:100B500090E0892B19F098D1811125C080E090E0B8
:100B6000892B41F080E090E0892B21F00E94000069
:100B700081111CC080E090E0892B41F080E090E082
:100B8000892B21F00E940000811113C080E090E0C9
:100B9000892BA1F080E090E0892B81F00E94000079
:100BA00081110AC008950E940000D8CF0E94000061
:100BB000E1CF0E940000EACF0C9400000895FC01F0
:100BC000848DDF01A80FB11DA35ABF4F2C91848DD6
:100BD00090E001968F739927848FA689B7892C930B
:100BE000A089B1898C9180648C93938D848D9813A6
:100BF00006C00288F389E02D80818F7D808308956F
:100C0000CF93DF93EC01888D8823C1F0EA89FB89BB
:100C1000808185FD05C0A889B9898C9186FD0EC0AB
:100C20000FB607FCF5CF808185FFF2CFA889B9897F
:100C30008C9185FFEDCFCE01C2DFE8CFDF91CF9160
:100C40000895CF92DF92FF920F931F93CF93DF937C
:100C50001F92CDB7DEB76C0181E0D60158968C9318
:100C600058975B969C915B975C968C915C979813D8
:100C700007C05096ED91FC915197808185FD2DC064
:100C8000F601038D10E00F5F1F4F0F731127F02E39
:100C9000F601848DF81210C00FB607FCF9CFD6010B
:100CA0005096ED91FC915197808185FFF1CFC6015F
:100CB000698385DF6981ECCF838DE80FF11DE35AED
:100CC000FF4F6083D6015B960C935B975296ED9134
:100CD000FC915397808180620CC0D6015696ED91AD
:100CE000FC91579760835096ED91FC9151978081CC
:100CF0008064808381E090E00F90DF91CF911F911D
:100D00000F91FF90DF90CF900895BF92CF92DF9226
:100D1000EF92FF92CF93DF93EC016A017B01B22E39
:100D2000E889F98982E08083411581EE58076105E1
:100D3000710599F060E079E08DE390E0A7019601FC
:100D4000FAD12150310941095109569547953795F6
:100D50002795211580E1380790F0E889F9891082FC
:100D600060E874E88EE190E0A7019601E4D121509B
:100D70003109410951095695479537952795EC85D5
:100D8000FD853083EE85FF852083188EEC89FD89F3
:100D9000B082EA89FB89808180618083EA89FB894E
:100DA000808188608083EA89FB8980818068808374
:100DB000EA89FB8980818F7D8083DF91CF91FF90CD
:100DC000EF90DF90CF90BF9008951F920F920FB6D3
:100DD0000F9211240BB60F922F938F939F93EF9343
:100DE000FF93E091F702F091F8028081E091FD021B
:100DF000F091FE0282FD12C09081809100038F5F0E
:100E00008F7320910103821751F0E0910003F0E00D
:100E1000E951FD4F958F8093000301C08081FF91C0
:100E2000EF919F918F912F910F900BBE0F900FBE5E
:100E30000F901F9018951F920F920FB60F921124CA
:100E40000BB60F922F933F934F935F936F937F93C4
:100E50008F939F93AF93BF93EF93FF9387EE92E0AF
:100E6000AEDEFF91EF91BF91AF919F918F917F91F6
:100E70006F915F914F913F912F910F900BBE0F900B
:100E80000FBE0F901F90189587EE92E02FDE21E0A5
:100E9000892B09F420E0822F08951092EA02109223
:100EA000E90288EE93E0A0E0B0E08093EB0290933B
:100EB000EC02A093ED02B093EE0281E892E09093F1
:100EC000E8028093E70285EC90E09093F40280932F
:100ED000F30284EC90E09093F6028093F50280ECAC
:100EE00090E09093F8028093F70281EC90E0909369
:100EF000FA028093F90282EC90E09093FC028093D6
:100F0000FB0286EC90E09093FE028093FD0210922B
:100F1000000310920103109202031092030308953C
:100F20000895C1DCFDDFA4D9C3EAD5E0D0D920976C
:100F3000E9F309DEFBCFCF92DF92EF92FF920F939E
:100F40001F93CF93DF937C016A01EB0100E010E077
:100F50000C151D0571F06991D701ED91FC9101907F
:100F6000F081E02DC7011995892B19F00F5F1F4FF4
:100F7000EFCFC801DF91CF911F910F91FF90EF90BC
:100F8000DF90CF9008956115710581F0DB010D9020
:100F90000020E9F7AD0141505109461B570BDC0118
:100FA000ED91FC910280F381E02D199480E090E0B6
:100FB0000895E9CFDC01ED91FC910190F081E02DE5
:100FC000199462E372E0DFCF8F929F92AF92BF924B
:100FD000DF92EF92FF920F931F93CF93DF93CDB7E2
:100FE000DEB7A1970FB6F894DEBF0FBECDBF7C0170
:100FF000F42FD52ECB0119A2223008F42AE08E015D
:101000000F5D1F4F822E912CA12CB12C6F2F7D2DA7
:10101000A501940190D0F22FD32ECA0101501109DD
:101020006A3014F4E0E301C0E7E3E60FD801EC9383
:10103000232B242B252B51F7B801C701A4DFA19640
:101040000FB6F894DEBF0FBECDBFDF91CF911F91D9
:101050000F91FF90EF90DF90BF90AF909F908F9097
:101060000895CF92DF92EF92FF920F931F93CF9349
:10107000DF93EC016A017B012115310579F4E881E8
:10108000F9810190F081E02D642FDF91CF911F91C4
:101090000F91FF90EF90DF90CF9019942A30310597
:1010A000D9F477FF18C06DE285DF8C0144275527FE
:1010B000BA014C195D096E097F092AE0CE0184DF6F
:1010C000800F911FDF91CF911F910F91FF90EF90B3
:1010D000DF90CF9008952AE0B701A601CE01DF91FD
:1010E000CF911F910F91FF90EF90DF90CF906CCF39
:1010F0000F931F93CF93DF93EC01B3DF8C01CE01ED
:1011000060DF800F911FDF91CF911F910F910895A4
:101110002115310541F4DC01ED91FC910190F08144
:10112000E02D642F199450CF9A01462F50E060E0D3
:1011300070E0EECF0895A1E21A2EAA1BBB1BFD01A1
:101140000DC0AA1FBB1FEE1FFF1FA217B307E407A6
:10115000F50720F0A21BB30BE40BF50B661F771FFE
:10116000881F991F1A9469F76095709580959095DE
:101170009B01AC01BD01CF010895EE0FFF1F05904B
:10118000F491E02D19940790F691E02D1994F894BC
:02119000FFCF8F
:10119200564D4450565F317C315F564D4450560D8A
:1011A2000A00564D4450455F31007C005F564D4465
:1011B20050450D0A00564D4450435F005F564D4462
:1011C20050430D0A004572726F723A204174746581
:1011D2006D707420746F2073657420612072656174
:1011E200642D6F6E6C79207661726961626C652024
:1011F2006F7220646174612074797065206E6F74FF
:1012020020737570706F727465640D0A00000000BF
:101212000021069B0776058F05810500066E616E2B
:0C12220000696E66006F7666002E00000A
:00000001FF
