:100000000C945E000C9486000C9486000C94860080
:100010000C9486000C9486000C9486000C94860048
:100020000C9486000C9486000C9486000C94860038
:100030000C9486000C9486000C9486000C94860028
:100040000C941F040C9486000C94C9020C94FB02BF
:100050000C9486000C9486000C9486000C94860008
:100060000C9486000C948600000000080002010039
:100070000003040700000000000000000102040863
:100080001020408001020408102001020408102002
:10009000040404040404040402020202020203032E
:1000A0000303030300000000250028002B000000CC
:1000B0000000240027002A0060012B0311241FBE2A
:1000C000CFEFD8E0DEBFCDBF11E0A0E0B1E0E6ECBD
:1000D000FAE002C005900D92A232B107D9F721E0F3
:1000E000A2E2B1E001C01D92AB3CB207E1F710E023
:1000F000CEE5D0E004C02197FE010E945B05CC351F
:10010000D107C9F70E9459030C9461050C940000B3
:100110008EBD00000DB407FEFDCF8EB508950F9380
:100120001F93CF93DF9300D0CDB7DEB78C01862F1E
:10013000F8016083718361E02A8349830E94CD04C2
:1001400061E0F80180810E9409050E94680160E079
:10015000F80180810E94090588E80E948800498191
:10016000842F0E94880061E0F80180810E940905C7
:1001700060E0F80180810E94090580E90E94880002
:100180002A81822F0E94880061E0F80180810F900F
:100190000F90DF91CF911F910F910C940905CF9390
:1001A000DF93EC0160E088810E94090588E90E94E4
:1001B000880080E00E94880080E00E94880080E043
:1001C0000E94880080E00E94880061E088810E948F
:1001D000090560E088810E94090580EE0E94880080
:1001E00061E08881DF91CF910C940905EF92FF9235
:1001F0000F931F93CF93DF937C0160E0FC0180811C
:100200000E94090580E60E94880080E00E94880024
:10021000182F80E00E948800082F80E00E9488004C
:10022000C82F80E00E948800D82F61E0F70180810C
:100230000E940905412F50E060E070E0742F6627AE
:100240005527442710E020E030E0980111270027CF
:10025000400F511F621F731F4D0F511D611D711DF6
:100260008C2F90E0A0E0B0E0BA2FA92F982F88271C
:100270008A019B01080F191F2A1F3B1FC901B801E2
:10028000DF91CF911F910F91FF90EF90089526E09D
:1002900040E855E260E070E085E291E00E9464028F
:1002A00082E291E00C94CF0082E291E00E94F6009D
:1002B000AB01BC012AE030E085E291E00C940D0432
:1002C00020E043E062E370E082E291E00C948F0072
:1002D000CF93CFB7F89480912401811127C0EAE928
:1002E000F0E08491E6E8F0E09491E82FF0E0EE0F82
:1002F000FF1FE255FF4FA591B491EC91E92321F442
:1003000061E08AE00E94090561E08AE00E94CD0474
:100310008CB580618CBD8CB580648CBD61E08DE056
:100320000E94CD0461E08BE00E94CD048091240105
:100330008F5F80932401CFBFCF910895FC01918DF1
:10034000228D892F90E0805C9F4F821B91098F73D3
:1003500099270895FC01918D828D981731F0828D37
:10036000E80FF11D858D90E008958FEF9FEF0895C0
:10037000FC01918D828D981761F0828DDF01A80FAD
:10038000B11D5D968C91928D9F5F9F73928F90E0CF
:1003900008958FEF9FEF089581E293E0892B49F054
:1003A00080E090E0892B29F00E94210381110C94B8
:1003B00000000895FC01848DDF01A80FB11DA35A30
:1003C000BF4F2C91848D90E001968F739927848F75
:1003D000A689B7892C93A089B1898C9180648C936C
:1003E000938D848D981306C00288F389E02D808157
:1003F0008F7D80830895CF93DF93EC01888D8823D0
:10040000C9F0EA89FB89808185FD05C0A889B98981
:100410008C9186FD0FC00FB607FCF5CF808185FF5C
:10042000F2CFA889B9898C9185FFEDCFCE010E94CA
:10043000DA01E7CFDF91CF910895EF92FF920F930A
:100440001F93CF93DF93EC0181E0888F9B8D8C8D80
:10045000981305C0E889F989808185FD24C0F62EAE
:100460000B8D10E00F5F1F4F0F731127E02E8C8D47
:10047000E8120CC00FB607FCFACFE889F989808131
:1004800085FFF5CFCE010E94DA01F1CF8B8DFE0101
:10049000E80FF11DE35AFF4FF0820B8FEA89FB89C9
:1004A0008081806207C0EE89FF896083E889F989CD
:1004B00080818064808381E090E0DF91CF911F9103
:1004C0000F91FF90EF900895CF92DF92EF92FF92FD
:1004D0001F93CF93DF93EC016A017B01122FE88910
:1004E000F98982E080834115514E61057105B1F0B3
:1004F00060E079E08DE390E0A70196010E94390564
:10050000DA01C9010197A109B109B695A795979597
:100510008795AC01411580E15807A8F0E889F98971
:10052000108260E874E88EE190E0A70196010E94D5
:100530003905BA01A901415051096109710976953E
:10054000679557954795EC85FD855083EE85FF852A
:100550004083188EEC89FD891083EA89FB898081AC
:1005600080618083EA89FB89808188608083EA8951
:10057000FB89808180688083EA89FB8980818F7D07
:100580008083DF91CF911F91FF90EF90DF90CF900C
:1005900008951F920F920FB60F9211242F938F93ED
:1005A0009F93EF93FF93E0913501F09136018081A5
:1005B000E0913B01F0913C0182FD12C0908180915D
:1005C0003E018F5F8F7320913F01821751F0E091C0
:1005D0003E01F0E0EB5DFE4F958F80933E0101C040
:1005E0008081FF91EF919F918F912F910F900FBE7E
:1005F0000F901F9018951F920F920FB60F92112413
:100600002F933F934F935F936F937F938F939F931A
:10061000AF93BF93EF93FF9385E291E00E94DA01DD
:10062000FF91EF91BF91AF919F918F917F916F91CA
:100630005F914F913F912F910F900FBE0F901F90A0
:10064000189585E291E00E949E0121E0892B09F432
:1006500020E0822F0895E5E2F1E01382128288EE15
:1006600093E0A0E0B0E084839583A683B78384E021
:1006700091E09183808385EC90E09587848784EC7A
:1006800090E09787868780EC90E0918B808B81EC5F
:1006900090E0938B828B82EC90E0958B848B86EC40
:1006A00090E0978B868B118E128E138E148E089588
:1006B00008950E9469040E9458030E944701CCECEF
:1006C000D1E00E9454012097E1F30E94CC01F9CFC0
:1006D000CF92DF92EF92FF920F931F93CF93DF930E
:1006E0006C017A018B01C0E0D0E0CE15DF0589F006
:1006F000D8016D918D01D601ED91FC910190F081B1
:10070000E02DC6010995892B11F47E0102C02196C6
:10071000ECCFC701DF91CF911F910F91FF90EF9028
:10072000DF90CF9008956115710579F0FB0101907C
:100730000020E9F73197AF01461B570BDC01ED9123
:10074000FC910280F381E02D099480E090E008950F
:1007500060E171E00C9493038F929F92AF92BF92ED
:10076000CF92DF92EF92FF920F931F93CF93DF937D
:10077000CDB7DEB7A1970FB6F894DEBF0FBECDBFE1
:100780007C01D42EC52EDB0119A2223008F42AE008
:100790008E010F5D1F4F822E912CA12CB12C6D2D3F
:1007A0007C2DCD01A50194010E943905D22EC32EC6
:1007B000DA01015011096A3071058105910510F4C3
:1007C000605D01C0695CF8016083232B242B252B1D
:1007D00031F7B801C7010E949303A1960FB6F894B0
:1007E000DEBF0FBECDBFDF91CF911F910F91FF9064
:1007F000EF90DF90CF90BF90AF909F908F90089533
:100800002115310541F4DC01ED91FC910190F0815D
:10081000E02D642F09940C94AC030F931F93CF9396
:10082000DF93EC010E9400048C01CE010E94A8031A
:10083000800F911FDF91CF911F910F9108951F920B
:100840000F920FB60F9211242F933F938F939F9384
:10085000AF93BF938091C3019091C401A091C50152
:10086000B091C6013091C20123E0230F2D3720F44F
:100870000196A11DB11D05C026E8230F0296A11DFA
:10088000B11D2093C2018093C3019093C401A09332
:10089000C501B093C6018091C7019091C801A09194
:1008A000C901B091CA010196A11DB11D8093C70174
:1008B0009093C801A093C901B093CA01BF91AF91B1
:1008C0009F918F913F912F910F900FBE0F901F908E
:1008D0001895789484B5826084BD84B5816084BDA8
:1008E00085B5826085BD85B5816085BDEEE6F0E0A9
:1008F000808181608083E1E8F0E010828081826005
:100900008083808181608083E0E8F0E08081816085
:100910008083E1EBF0E0808184608083E0EBF0E0B5
:10092000808181608083EAE7F0E080818460808359
:100930008081826080838081816080838081806803
:1009400080831092C1000895833081F028F48130B3
:1009500099F08230A1F008958730A9F08830B9F07D
:100960008430D1F4809180008F7D03C0809180001D
:100970008F7780938000089584B58F7702C084B507
:100980008F7D84BD08958091B0008F7703C08091E2
:10099000B0008F7D8093B0000895CF93DF9390E0F7
:1009A000FC01E458FF4F2491FC01E057FF4F849174
:1009B000882361F190E0880F991FFC01E255FF4FF9
:1009C000C591D491FC01EC55FF4FA591B4916111F3
:1009D00009C09FB7F8948881209582238883EC9181
:1009E0002E230BC0623061F49FB7F8943881822FB8
:1009F000809583238883EC912E2B2C939FBF06C078
:100A00008FB7F894E8812E2B28838FBFDF91CF9189
:100A100008951F93CF93DF93282F30E0F901E85911
:100A2000FF4F8491F901E458FF4FD491F901E05749
:100A3000FF4FC491CC23C9F0162F81110E94A4044A
:100A4000EC2FF0E0EE0FFF1FEC55FF4FA591B49196
:100A50008FB7F894111105C09C91ED2FE095E92313
:100A600002C0EC91ED2BEC938FBFDF91CF911F91E2
:100A70000895A1E21A2EAA1BBB1BFD010DC0AA1FDF
:100A8000BB1FEE1FFF1FA217B307E407F50720F0F7
:100A9000A21BB30BE40BF50B661F771F881F991F72
:100AA0001A9469F760957095809590959B01AC01BB
:100AB000BD01CF010895EE0FFF1F0590F491E02DC9
:060AC0000994F894FFCF39
:100AC600000000001D0268039E01B801AA01FB0197
:100AD6000D0A006E616E00696E66006F7666002E06
:020AE60000000E
:00000001FF
